{"abi":[{"type":"function","name":"SEASON_DURATION","inputs":[],"outputs":[{"name":"","type":"uint256","internalType":"uint256"}],"stateMutability":"view"},{"type":"function","name":"currentProjects","inputs":[{"name":"","type":"uint256","internalType":"uint256"}],"outputs":[{"name":"","type":"address","internalType":"address"}],"stateMutability":"view"},{"type":"function","name":"currentSeasonExpiry","inputs":[],"outputs":[{"name":"","type":"uint64","internalType":"uint64"}],"stateMutability":"view"},{"type":"function","name":"eas","inputs":[],"outputs":[{"name":"","type":"address","internalType":"contract IEAS"}],"stateMutability":"view"},{"type":"function","name":"ejectProject","inputs":[{"name":"project","type":"address","internalType":"address"}],"outputs":[],"stateMutability":"nonpayable"},{"type":"function","name":"eligibleProject","inputs":[{"name":"","type":"bytes32","internalType":"bytes32"}],"outputs":[{"name":"","type":"address","internalType":"address"}],"stateMutability":"view"},{"type":"function","name":"eligibleVoter","inputs":[{"name":"","type":"address","internalType":"address"}],"outputs":[{"name":"","type":"bool","internalType":"bool"}],"stateMutability":"view"},{"type":"function","name":"getCurrentProjects","inputs":[],"outputs":[{"name":"","type":"address[]","internalType":"address[]"}],"stateMutability":"view"},{"type":"function","name":"initialize","inputs":[{"name":"_easAddress","type":"address","internalType":"address"},{"name":"_optimismFoundationAttestors","type":"address[]","internalType":"address[]"},{"name":"_SEASON_DURATION","type":"uint256","internalType":"uint256"},{"name":"_currentSeasonExpiry","type":"uint64","internalType":"uint64"}],"outputs":[],"stateMutability":"nonpayable"},{"type":"function","name":"minRequiredVouches","inputs":[],"outputs":[{"name":"","type":"uint256","internalType":"uint256"}],"stateMutability":"view"},{"type":"function","name":"optimismFoundationAttestors","inputs":[{"name":"","type":"uint256","internalType":"uint256"}],"outputs":[{"name":"","type":"address","internalType":"address"}],"stateMutability":"view"},{"type":"function","name":"projectToExpiry","inputs":[{"name":"","type":"address","internalType":"address"}],"outputs":[{"name":"","type":"uint256","internalType":"uint256"}],"stateMutability":"view"},{"type":"function","name":"projectToVouches","inputs":[{"name":"","type":"address","internalType":"address"}],"outputs":[{"name":"","type":"uint256","internalType":"uint256"}],"stateMutability":"view"},{"type":"function","name":"userToProjectVouch","inputs":[{"name":"","type":"address","internalType":"address"},{"name":"","type":"bytes32","internalType":"bytes32"}],"outputs":[{"name":"","type":"bool","internalType":"bool"}],"stateMutability":"view"},{"type":"function","name":"validateOptimismVoter","inputs":[{"name":"identityAttestation","type":"bytes32","internalType":"bytes32"},{"name":"claimer","type":"address","internalType":"address"}],"outputs":[{"name":"","type":"bool","internalType":"bool"}],"stateMutability":"nonpayable"},{"type":"function","name":"validateProject","inputs":[{"name":"approvalAttestation","type":"bytes32","internalType":"bytes32"}],"outputs":[{"name":"","type":"bool","internalType":"bool"}],"stateMutability":"nonpayable"},{"type":"function","name":"vouch","inputs":[{"name":"projectApprovalAttestation","type":"bytes32","internalType":"bytes32"},{"name":"identityAttestation","type":"bytes32","internalType":"bytes32"}],"outputs":[],"stateMutability":"nonpayable"},{"type":"function","name":"vouch","inputs":[{"name":"projectApprovalAttestation","type":"bytes32","internalType":"bytes32"}],"outputs":[],"stateMutability":"nonpayable"},{"type":"event","name":"Initialized","inputs":[{"name":"version","type":"uint64","indexed":false,"internalType":"uint64"}],"anonymous":false},{"type":"event","name":"ProjectValidated","inputs":[{"name":"approvalAttestation","type":"bytes32","indexed":true,"internalType":"bytes32"},{"name":"recipient","type":"address","indexed":true,"internalType":"address"}],"anonymous":false},{"type":"event","name":"VoterValidated","inputs":[{"name":"claimer","type":"address","indexed":true,"internalType":"address"},{"name":"farcasterID","type":"uint256","indexed":true,"internalType":"uint256"}],"anonymous":false},{"type":"error","name":"InvalidInitialization","inputs":[]},{"type":"error","name":"NotInitializing","inputs":[]}],"bytecode":{"object":"0x6080806040523461001657611307908161001c8239f35b600080fdfe608060408181526004918236101561001657600080fd5b600092833560e01c9182623283da146109795750816302ca08061461094157816308ddc366146109215781630b35b18314610865578163143472cc14610832578163247a96681461071d5781633faf511f146106465781634188e90b1461061b5781634c670d5b146103495781636186b4f41461030c578163675e935f146102e35781638150864d146102bb57816393c06d361461027a578163ce4894db14610233578163dc185e3514610214578163dd139251146101f257508063f2645e371461012a5763f3ab6c19146100ea57600080fd5b346101265760203660031901126101265760209160ff9082906001600160a01b036101136109ad565b1681526006855220541690519015158152f35b5080fd5b5090346101ef57806003193601126101ef579080519182906005549182855260208095018093600584527f036b6384b5eca791c62761152d0c79bb0604c104a5fb6f4eb0703f3154bb3db090845b8181106101d2575050508161018e910382610a7e565b83519485948186019282875251809352850193925b8281106101b257505050500390f35b83516001600160a01b0316855286955093810193928101926001016101a3565b82546001600160a01b031684529288019260019283019201610178565b80fd5b90503461021057826003193601126102105760209250549051908152f35b8280fd5b5050346101265781600319360112610126576020906002549051908152f35b50503461012657806003193601126101265760209160ff9082906001600160a01b0361025d6109ad565b168152600a85528181206024358252855220541690519015158152f35b9050346102105760203660031901126102105735916001548310156101ef57506102a5602092610a15565b905491519160018060a01b039160031b1c168152f35b505034610126578160031936011261012657905490516001600160a01b039091168152602090f35b50503461012657816003193601126101265760209067ffffffffffffffff600354169051908152f35b905034610210578160031936011261021057602435926001600160a01b03841684036101ef575060209261034091356110c7565b90519015158152f35b905034610210576080366003190112610210576103646109ad565b9060249283359267ffffffffffffffff908185116106175736602386011215610617578484013591808311610605578260051b916020968551946103aa89860187610a7e565b855287850189819583010191368311610601578a01905b8282106105de57505050606435928284168094036105da577ff0c57e16840df040f15088dc2f81fe391c3923bec73e23a9662efc9c229c6a009889549760ff89891c161596858a16998a15806105d3575b6001809c1490816105c9575b1590816105c0575b506105b05767ffffffffffffffff198082168c178e559695949392919089610591575b5060ff8d548b1c1615610582578d546001600160a01b0319166001600160a01b03958616178e555194851161057157600160401b8511610571575050875483895580841061052f575b5090878b52878b5b8481106104fb57505050505060443560025560035416176003556104bc578480f35b7fc7f505b2f371ae2175ee4913f4499e1f2633a7b5936321eed1cdaeb6115181d29368ff000000000000000019815416905551908152a1388080808480f35b8a83855116940193817fb10e2d527612073b26eecdfd717e6a320cf44b4afac2b0732d9fcbe2b7fa0cf6015501889061049a565b88847fb10e2d527612073b26eecdfd717e6a320cf44b4afac2b0732d9fcbe2b7fa0cf692830192015b828110610566575050610492565b8d8155018990610558565b634e487b7160e01b8d52604190528bfd5b508851631afcd79f60e31b8152fd5b68ffffffffffffffffff191668010000000000000001178d5538610449565b895163f92ee8a960e01b81528390fd5b90501538610426565b303b15915061041e565b5088610412565b8980fd5b81356001600160a01b03811681036105fd5781529089019089016103c1565b8c80fd5b8b80fd5b634e487b7160e01b8852604185528688fd5b8680fd5b9050346102105760203660031901126102105735916005548310156101ef57506102a56020926109c8565b919050346102105760208060031936011261071957823592338552600a8252828520848652825261067d60ff848720541615611089565b3385526006825260ff8386205416156106ba5750828452600890528220546001600160a01b0316156106ad575080f35b6106b690610cbe565b5080f35b915162461bcd60e51b815291820152603560248201527f4964656e74697479206174746573746174696f6e20726571756972656420666f604482015274722066697273742d74696d6520766f75636865727360581b6064820152608490fd5b8380fd5b8284346101ef5760203660031901126101ef576001600160a01b039080826107436109ad565b1693848252600760205281818120556009602052812055805b600580548083101561082e5790849186610775856109c8565b949054600395861b1c1614610790575b50505060010161075c565b6000199080820190811161081b57866107ab6107d9926109c8565b905490861b1c166107bb866109c8565b90919060018060a01b038084549260031b9316831b921b1916179055565b8154801561080857600194939291879101926107f4846109c8565b81939154921b1b1916905555908680610785565b634e487b7160e01b865260318952602486fd5b634e487b7160e01b865260118952602486fd5b8380f35b9050346102105760203660031901126102105735825260086020908152918190205490516001600160a01b039091168152f35b91905034610210578060031936011261021057813591338452600a60205281842083855260205261089c60ff838620541615611089565b338452600660205260ff8285205416156108cf575b5081835260086020528220546001600160a01b0316156106ad575080f35b6108db336024356110c7565b6108b1576020606492519162461bcd60e51b8352820152601c60248201527f496e76616c6964206964656e74697479206174746573746174696f6e000000006044820152fd5b8284346101ef5760203660031901126101ef575061034060209235610cbe565b5050346101265760203660031901126101265760209181906001600160a01b036109696109ad565b1681526007845220549051908152f35b84908434610210576020366003190112610210576020926001600160a01b036109a06109ad565b1681526009845220548152f35b600435906001600160a01b03821682036109c357565b600080fd5b6005548110156109ff5760056000527f036b6384b5eca791c62761152d0c79bb0604c104a5fb6f4eb0703f3154bb3db00190600090565b634e487b7160e01b600052603260045260246000fd5b6001548110156109ff5760016000527fb10e2d527612073b26eecdfd717e6a320cf44b4afac2b0732d9fcbe2b7fa0cf60190600090565b6040810190811067ffffffffffffffff821117610a6857604052565b634e487b7160e01b600052604160045260246000fd5b90601f8019910116810190811067ffffffffffffffff821117610a6857604052565b519067ffffffffffffffff821682036109c357565b51906001600160a01b03821682036109c357565b92919267ffffffffffffffff8211610a6857602060405191610af56020601f19601f8701160184610a7e565b8295848452848201116109c35760005b848110610b1a57505050600091602091010152565b818101518482018401528201610b05565b906020828203126109c357815167ffffffffffffffff928382116109c35701906101409283838303126109c35760405193840184811082821117610a68576040528251845260208301516020850152610b8660408401610aa0565b6040850152610b9760608401610aa0565b6060850152610ba860808401610aa0565b608085015260a083015160a0850152610bc360c08401610ab5565b60c0850152610bd460e08401610ab5565b60e0850152610100808401519081151582036109c35785015261012092838101519182116109c357019080601f830112156109c3578151610c1792602001610ac9565b9082015290565b15610c2557565b60405162461bcd60e51b8152602060048201526015602482015274105d1d195cdd185d1a5bdb881b9bdd08199bdd5b99605a1b6044820152606490fd5b15610c6957565b60405162461bcd60e51b815260206004820152601060248201526f24b73b30b634b21030ba3a32b9ba32b960811b6044820152606490fd5b9080601f830112156109c3578151610cbb92602001610ac9565b90565b6000818152600860209081526040808320546001600160a01b039493929190851661107f578483541694815180916328c44a9960e21b82528582600499898b83015260249485915afa928315611075578693611051575b50610d2283511515610c1e565b8586600190600154905b81811061101d575b505050610d4090610c62565b67ffffffffffffffff928360035416600254810390811161100b5784868301511610610fbf576101208101518051810160a082898301920312610fbb57878201518681116105da578189610d9692850101610ca1565b9187810151878111610fb757828a610db092840101610ca1565b506060810151878111610fb757828a610dcb92840101610ca1565b506080810151878111610fb757828a610de692840101610ca1565b5060a081015190878211610fb7579189610e23927fc9c440f30d488915913fbf5be3b1258d52810b96df9abfd94453647369c5c557940101610ca1565b91888151910120664772616e74656560c81b898951610e4181610a4c565b60078152015203610f845780877f3daf24f00ec9126ca672550e31b04f5afc84971e66e712bc688ac3bf060938ff925191012073105c1c1b1a58d85d1a5bdb88105c1c1c9bdd995960621b888851610e9881610a4c565b60148152015203610f515760c00151169686865260088552838620916bffffffffffffffffffffffff60a01b92898482541617905560055491600160401b831015610f4057505091600791610f1b896107bb8660017f04ab6b814cd7dafce48f0293d9410bc8b20d0e2aad2007738da70cfc7927c67a9b9a9998016005556109c8565b87865260088552888487209182541617905560035416928785525282205580a3600190565b634e487b7160e01b88526041905286fd5b845162461bcd60e51b8152808a01879052600e818501526d496e76616c696420706172616d3560901b6044820152606490fd5b855162461bcd60e51b8152808b01889052600e818601526d496e76616c696420706172616d3160901b6044820152606490fd5b8a80fd5b8880fd5b845162461bcd60e51b8152808a018790526021818501527f4174746573746174696f6e206e6f7420696e2063757272656e7420736561736f6044820152603760f91b6064820152608490fd5b634e487b7160e01b885260118a528388fd5b8460e0880151168561102e83610a15565b90549060031b1c1614611042578201610d2c565b5050610d409150903880610d34565b61106e9193503d8088833e6110668183610a7e565b810190610b2b565b9138610d15565b84513d88823e3d90fd5b5050505050600190565b1561109057565b60405162461bcd60e51b815260206004820152600f60248201526e105b1c9958591e481d9bdd58da1959608a1b6044820152606490fd5b9060018060a01b03916000928381815416926024604051809581936328c44a9960e21b835260048301525afa9182156112c65784926112aa575b5061110e82511515610c1e565b8384600190600154905b818110611276575b50505061112c90610c62565b8060c0830151169216809203611219576101200151918251602090840160a08583830192031261021057818501519460408101519067ffffffffffffffff9182811161121557838561118092840101610ca1565b50606081015182811161121557838561119b92840101610ca1565b5060808101518281116112155783856111b692840101610ca1565b5060a081015191821161121157600692847f3537cef8169fc4c225587baaa4099e2245e688ff0818f9f87ed4e4cef27810f49695936111f6930101610ca1565b508483525260408120805460ff1916600117905580a3600190565b8480fd5b8580fd5b60405162461bcd60e51b815260206004820152602f60248201527f436c61696d6572206973206e6f742074686520726563697069656e74206f662060448201526e3a34329030ba3a32b9ba30ba34b7b760891b6064820152608490fd5b8460e0870151168561128783610a15565b90549060031b1c161461129b578201611118565b505061112c9150903880611120565b6112bf9192503d8086833e6110668183610a7e565b9038611101565b6040513d86823e3d90fdfea2646970667358221220a816f659ec23156b0917bae07f1e3734f218525a20dee5e822306d8760d78dee64736f6c63430008160033","linkReferences":{}},"methodIdentifiers":{"SEASON_DURATION()":"dc185e35","currentProjects(uint256)":"4188e90b","currentSeasonExpiry()":"675e935f","eas()":"8150864d","ejectProject(address)":"247a9668","eligibleProject(bytes32)":"143472cc","eligibleVoter(address)":"f3ab6c19","getCurrentProjects()":"f2645e37","initialize(address,address[],uint256,uint64)":"4c670d5b","minRequiredVouches()":"dd139251","optimismFoundationAttestors(uint256)":"93c06d36","projectToExpiry(address)":"02ca0806","projectToVouches(address)":"003283da","userToProjectVouch(address,bytes32)":"ce4894db","validateOptimismVoter(bytes32,address)":"6186b4f4","validateProject(bytes32)":"08ddc366","vouch(bytes32)":"3faf511f","vouch(bytes32,bytes32)":"0b35b183"},"id":52}