{"abi":[{"type":"function","name":"SEASON_DURATION","inputs":[],"outputs":[{"name":"","type":"uint256","internalType":"uint256"}],"stateMutability":"view"},{"type":"function","name":"currentProjects","inputs":[{"name":"","type":"uint256","internalType":"uint256"}],"outputs":[{"name":"","type":"address","internalType":"address"}],"stateMutability":"view"},{"type":"function","name":"currentSeasonExpiry","inputs":[],"outputs":[{"name":"","type":"uint256","internalType":"uint256"}],"stateMutability":"view"},{"type":"function","name":"eas","inputs":[],"outputs":[{"name":"","type":"address","internalType":"contract IEAS"}],"stateMutability":"view"},{"type":"function","name":"eligibleProject","inputs":[{"name":"","type":"bytes32","internalType":"bytes32"}],"outputs":[{"name":"","type":"bool","internalType":"bool"}],"stateMutability":"view"},{"type":"function","name":"eligibleVoter","inputs":[{"name":"","type":"address","internalType":"address"}],"outputs":[{"name":"","type":"bool","internalType":"bool"}],"stateMutability":"view"},{"type":"function","name":"farcasterIdClaimed","inputs":[{"name":"","type":"uint256","internalType":"uint256"}],"outputs":[{"name":"","type":"bool","internalType":"bool"}],"stateMutability":"view"},{"type":"function","name":"getCurrentProjects","inputs":[],"outputs":[{"name":"","type":"address[]","internalType":"address[]"}],"stateMutability":"view"},{"type":"function","name":"initialize","inputs":[{"name":"_easAddress","type":"address","internalType":"address"},{"name":"_optimismFoundationAttestors","type":"address[]","internalType":"address[]"},{"name":"_SEASON_DURATION","type":"uint256","internalType":"uint256"},{"name":"_currentSeasonExpiry","type":"uint256","internalType":"uint256"}],"outputs":[],"stateMutability":"nonpayable"},{"type":"function","name":"optimismFoundationAttestors","inputs":[{"name":"","type":"uint256","internalType":"uint256"}],"outputs":[{"name":"","type":"address","internalType":"address"}],"stateMutability":"view"},{"type":"function","name":"projectToExpiry","inputs":[{"name":"","type":"address","internalType":"address"}],"outputs":[{"name":"","type":"uint256","internalType":"uint256"}],"stateMutability":"view"},{"type":"function","name":"validateOptimismVoter","inputs":[{"name":"identityAttestation","type":"bytes32","internalType":"bytes32"},{"name":"claimer","type":"address","internalType":"address"}],"outputs":[{"name":"","type":"bool","internalType":"bool"}],"stateMutability":"nonpayable"},{"type":"function","name":"validateProject","inputs":[{"name":"approvalAttestation","type":"bytes32","internalType":"bytes32"}],"outputs":[{"name":"","type":"bool","internalType":"bool"}],"stateMutability":"nonpayable"},{"type":"function","name":"vouch","inputs":[{"name":"projectApprovalAttestation","type":"bytes32","internalType":"bytes32"},{"name":"identityAttestation","type":"bytes32","internalType":"bytes32"}],"outputs":[],"stateMutability":"nonpayable"},{"type":"function","name":"vouch","inputs":[{"name":"projectApprovalAttestation","type":"bytes32","internalType":"bytes32"}],"outputs":[],"stateMutability":"nonpayable"},{"type":"event","name":"Initialized","inputs":[{"name":"version","type":"uint64","indexed":false,"internalType":"uint64"}],"anonymous":false},{"type":"event","name":"ProjectValidated","inputs":[{"name":"approvalAttestation","type":"bytes32","indexed":true,"internalType":"bytes32"},{"name":"recipient","type":"address","indexed":true,"internalType":"address"}],"anonymous":false},{"type":"event","name":"VoterValidated","inputs":[{"name":"claimer","type":"address","indexed":true,"internalType":"address"},{"name":"farcasterID","type":"uint256","indexed":true,"internalType":"uint256"}],"anonymous":false},{"type":"error","name":"InvalidInitialization","inputs":[]},{"type":"error","name":"NotInitializing","inputs":[]}],"bytecode":{"object":"0x60808060405234610016576111c2908161001c8239f35b600080fdfe608060408181526004918236101561001657600080fd5b600092833560e01c91826302ca08061461083c575081630881cffb1461058857816308ddc366146105685781630b35b183146104b8578163143472cc1461048b5781633faf511f1461033f5781634188e90b146102e55781636186b4f4146102a8578163675e935f146102895781636cc8c1fe1461025c5781638150864d1461023457816393c06d36146101ef578163dc185e35146101d0578163f2645e371461010a575063f3ab6c19146100ca57600080fd5b346101065760203660031901126101065760209160ff9082906001600160a01b036100f3610870565b1681526006855220541690519015158152f35b5080fd5b905082346101cd57806003193601126101cd579190815192838254808652602080960190819484527f8a35acfbc15ff81a39ae7d344fd709f28e8600b4aa8c65c6b64bfe7fe36bd19b90845b8181106101b0575050508161016c9103826108bd565b83519485948186019282875251809352850193925b82811061019057505050500390f35b83516001600160a01b031685528695509381019392810192600101610181565b82546001600160a01b031684529288019260019283019201610156565b80fd5b5050346101065781600319360112610106576020906002549051908152f35b9050346102305760203660031901126102305735916001548310156101cd575061021a6020926108df565b905491519160018060a01b039160031b1c168152f35b8280fd5b505034610106578160031936011261010657905490516001600160a01b039091168152602090f35b905034610230576020366003190112610230578160209360ff923581526005855220541690519015158152f35b5050346101065781600319360112610106576020906003549051908152f35b905034610230578160031936011261023057602435926001600160a01b03841684036101cd57506020926102dc9135610f23565b90519015158152f35b90503461023057602036600319011261023057803590805482101561033b576020935260018060a01b03907f8a35acfbc15ff81a39ae7d344fd709f28e8600b4aa8c65c6b64bfe7fe36bd19b0154169051908152f35b8380fd5b919050346102305760208060031936011261033b578235923385526006825260ff83862054161561042c578385526008825260ff838620541615610381578480f35b61038a84610b4a565b50845483516328c44a9960e21b81529182018590526001600160a01b03919086908290602490829086165afa90811561042257600793929160c0918891610400575b50015116936103da85610ebf565b855260088152828520805460ff1916600117905560035493855252822055388080808480f35b61041c91503d808a833e61041481836108bd565b8101906109b7565b386103cc565b84513d88823e3d90fd5b915162461bcd60e51b815291820152603560248201527f4964656e74697479206174746573746174696f6e20726571756972656420666f604482015274722066697273742d74696d6520766f75636865727360581b6064820152608490fd5b905034610230576020366003190112610230578160209360ff923581526008855220541690519015158152f35b919050346102305780600319360112610230578135913384526020906006825260ff8386205416156104fc575b8385526008825260ff838620541615610381578480f35b61050833602435610f23565b156105275733855260068252828520805460ff191660011790556104e5565b915162461bcd60e51b815291820152601c60248201527f496e76616c6964206964656e74697479206174746573746174696f6e000000006044820152606490fd5b8284346101cd5760203660031901126101cd57506102dc60209235610b4a565b905034610230576080366003190112610230576105a3610870565b9060249283359267ffffffffffffffff8085116108385736602386011215610838578484013591818311610826578260051b6020968551946105e7898401876108bd565b855287850189819383010191368311610822578a01905b8282106107ff575050507ff0c57e16840df040f15088dc2f81fe391c3923bec73e23a9662efc9c229c6a009788549660ff88881c161595858916988915806107f8575b6001809b1490816107ee575b1590816107e5575b506107d55767ffffffffffffffff1981168a178c55876107b6575b5060ff8b54891c16156107a7578b546001600160a01b0319166001600160a01b03958616178c555194851161079657600160401b85116107965750508554838755808410610754575b509085895285895b8481106107205750505050506044356002556064356003556106e1578480f35b7fc7f505b2f371ae2175ee4913f4499e1f2633a7b5936321eed1cdaeb6115181d29368ff000000000000000019815416905551908152a1388080808480f35b8883855116940193817fb10e2d527612073b26eecdfd717e6a320cf44b4afac2b0732d9fcbe2b7fa0cf601550186906106c1565b86847fb10e2d527612073b26eecdfd717e6a320cf44b4afac2b0732d9fcbe2b7fa0cf692830192015b82811061078b5750506106b9565b8b815501879061077d565b634e487b7160e01b8b526041905289fd5b508651631afcd79f60e31b8152fd5b68ffffffffffffffffff191668010000000000000001178b5538610670565b885163f92ee8a960e01b81528390fd5b90501538610655565b303b15915061064d565b5087610641565b81356001600160a01b038116810361081e5781529089019089016105fe565b8c80fd5b8b80fd5b634e487b7160e01b8852604185528688fd5b8680fd5b84908434610230576020366003190112610230576020926001600160a01b03610863610870565b1681526007845220548152f35b600435906001600160a01b038216820361088657565b600080fd5b6040810190811067ffffffffffffffff8211176108a757604052565b634e487b7160e01b600052604160045260246000fd5b90601f8019910116810190811067ffffffffffffffff8211176108a757604052565b6001548110156109165760016000527fb10e2d527612073b26eecdfd717e6a320cf44b4afac2b0732d9fcbe2b7fa0cf60190600090565b634e487b7160e01b600052603260045260246000fd5b519067ffffffffffffffff8216820361088657565b51906001600160a01b038216820361088657565b92919267ffffffffffffffff82116108a7576020604051916109816020601f19601f87011601846108bd565b8295848452848201116108865760005b8481106109a657505050600091602091010152565b818101518482018401528201610991565b9060208282031261088657815167ffffffffffffffff9283821161088657019061014092838383031261088657604051938401848110828211176108a757604052825184526020830151602085015260408301516040850152610a1c6060840161092c565b6060850152610a2d6080840161092c565b6080850152610a3e60a0840161092c565b60a0850152610a4f60c08401610941565b60c0850152610a6060e08401610941565b60e08501526101008084015190811515820361088657850152610120928381015191821161088657019080601f83011215610886578151610aa392602001610955565b9082015290565b15610ab157565b60405162461bcd60e51b8152602060048201526015602482015274105d1d195cdd185d1a5bdb881b9bdd08199bdd5b99605a1b6044820152606490fd5b15610af557565b60405162461bcd60e51b815260206004820152601060248201526f24b73b30b634b21030ba3a32b9ba32b960811b6044820152606490fd5b9080601f83011215610886578151610b4792602001610955565b90565b600090808252602060088152604060ff8185205416610eb657835481516328c44a9960e21b8152600481018590526001600160a01b039390929186908490602490829088165afa928315610eac578693610e90575b50610bac83511515610aaa565b8586600190600154905b818110610e5c575b505050610bca90610aee565b6003546002548103818111610e485767ffffffffffffffff9182606087015116918210159182610e3d575b505015610df05761012084015190815182019060a083858401930312610dec5783830151818111610de4578285610c2e92860101610b2d565b9285810151828111610de8578386610c4892840101610b2d565b506060810151828111610de8578386610c6392840101610b2d565b506080810151828111610de8578386610c7e92840101610b2d565b5060a0810151918211610de4579184610cba927fc9c440f30d488915913fbf5be3b1258d52810b96df9abfd94453647369c5c557940101610b2d565b91838151910120664772616e74656560c81b848651610cd88161088b565b60078152015203610db05780827f3daf24f00ec9126ca672550e31b04f5afc84971e66e712bc688ac3bf060938ff925191012073105c1c1b1a58d85d1a5bdb88105c1c1c9bdd995960621b838551610d2f8161088b565b60148152015203610d7d57848652600890528420805460ff1916600117905560c0015116917f04ab6b814cd7dafce48f0293d9410bc8b20d0e2aad2007738da70cfc7927c67a9080a3600190565b606491519062461bcd60e51b82526004820152600e60248201526d496e76616c696420706172616d3560901b6044820152fd5b50606491519062461bcd60e51b82526004820152600e60248201526d496e76616c696420706172616d3160901b6044820152fd5b8980fd5b8a80fd5b8880fd5b50608491519062461bcd60e51b82526004820152602160248201527f4174746573746174696f6e206e6f7420696e2063757272656e7420736561736f6044820152603760f91b6064820152fd5b111590503880610bf5565b634e487b7160e01b88526011600452602488fd5b8760e08801511688610e6d836108df565b90549060031b1c1614610e81578201610bb6565b5050610bca9150903880610bbe565b610ea59193503d8088833e61041481836108bd565b9138610b9f565b82513d88823e3d90fd5b50505050600190565b600454600160401b8110156108a75760018101806004558110156109165760046000527f8a35acfbc15ff81a39ae7d344fd709f28e8600b4aa8c65c6b64bfe7fe36bd19b0180546001600160a01b0319166001600160a01b03909216919091179055565b60008054604080516328c44a9960e21b815260048101949094529392906001600160a01b039083908390602490829085165afa918215611182578392611166575b50610f7182511515610aaa565b8283600190600154905b818110611132575b505050610f8f90610aee565b8060c08301511693168093036110d6576101200151928351602090850160a08683830192031261033b578186015195838101519067ffffffffffffffff91828111610838578385610fe292840101610b2d565b506060810151828111610838578385610ffd92840101610b2d565b50608081015182811161083857838561101892840101610b2d565b5060a08101519182116110d2576110329291018301610b2d565b508483526005815260ff828420541661108257848352600590528120805460ff191660011790557f3537cef8169fc4c225587baaa4099e2245e688ff0818f9f87ed4e4cef27810f49080a3600190565b608491519062461bcd60e51b82526004820152602560248201527f4661726361737465722049442068617320616c7265616479206265656e20636c604482015264185a5b595960da1b6064820152fd5b8580fd5b835162461bcd60e51b815260206004820152602f60248201527f436c61696d6572206973206e6f742074686520726563697069656e74206f662060448201526e3a34329030ba3a32b9ba30ba34b7b760891b6064820152608490fd5b8460e08701511685611143836108df565b90549060031b1c1614611157578201610f7b565b5050610f8f9150903880610f83565b61117b9192503d8085833e61041481836108bd565b9038610f64565b85513d85823e3d90fdfea264697066735822122085289f7f28c59155570e09e58e1cda74bc8ba2521cf01853986a8dd9c5429e2b64736f6c63430008160033","linkReferences":{}},"methodIdentifiers":{"SEASON_DURATION()":"dc185e35","currentProjects(uint256)":"4188e90b","currentSeasonExpiry()":"675e935f","eas()":"8150864d","eligibleProject(bytes32)":"143472cc","eligibleVoter(address)":"f3ab6c19","farcasterIdClaimed(uint256)":"6cc8c1fe","getCurrentProjects()":"f2645e37","initialize(address,address[],uint256,uint256)":"0881cffb","optimismFoundationAttestors(uint256)":"93c06d36","projectToExpiry(address)":"02ca0806","validateOptimismVoter(bytes32,address)":"6186b4f4","validateProject(bytes32)":"08ddc366","vouch(bytes32)":"3faf511f","vouch(bytes32,bytes32)":"0b35b183"},"id":52}