{"abi":[{"type":"function","name":"getAttestation","inputs":[{"name":"uid","type":"bytes32","internalType":"bytes32"}],"outputs":[{"name":"","type":"tuple","internalType":"struct IEAS.Attestation","components":[{"name":"uid","type":"bytes32","internalType":"bytes32"},{"name":"schema","type":"bytes32","internalType":"bytes32"},{"name":"time","type":"uint64","internalType":"uint64"},{"name":"expirationTime","type":"uint64","internalType":"uint64"},{"name":"revocationTime","type":"uint64","internalType":"uint64"},{"name":"refUID","type":"bytes32","internalType":"bytes32"},{"name":"recipient","type":"address","internalType":"address"},{"name":"attester","type":"address","internalType":"address"},{"name":"revocable","type":"bool","internalType":"bool"},{"name":"data","type":"bytes","internalType":"bytes"}]}],"stateMutability":"view"},{"type":"function","name":"setAttestation","inputs":[{"name":"uid","type":"bytes32","internalType":"bytes32"},{"name":"attestation","type":"tuple","internalType":"struct IEAS.Attestation","components":[{"name":"uid","type":"bytes32","internalType":"bytes32"},{"name":"schema","type":"bytes32","internalType":"bytes32"},{"name":"time","type":"uint64","internalType":"uint64"},{"name":"expirationTime","type":"uint64","internalType":"uint64"},{"name":"revocationTime","type":"uint64","internalType":"uint64"},{"name":"refUID","type":"bytes32","internalType":"bytes32"},{"name":"recipient","type":"address","internalType":"address"},{"name":"attester","type":"address","internalType":"address"},{"name":"revocable","type":"bool","internalType":"bool"},{"name":"data","type":"bytes","internalType":"bytes"}]}],"outputs":[],"stateMutability":"nonpayable"}],"bytecode":{"object":"0x608080604052346100165761060b908161001c8239f35b600080fdfe6080604052600436101561001257600080fd5b60003560e01c8063415f8180146102e35763a3112a641461003257600080fd5b346102de5760203660031901126102de576060610120604051610054816105b8565b60008152600060208201526000604082015260008382015260006080820152600060a0820152600060c0820152600060e08201526000610100820152015260043560005260006020526040600020604051906100af826105b8565b805482526001810154602083015267ffffffffffffffff60028201548181166040850152818160401c16606085015260801c166080830152600381015460a083015260018060a01b0360048201541660c083015260ff600582015460018060a01b03811660e085015260a01c1615156101008301526040519060009060068101549061013a8261057e565b80855291600181169081156102c05750600114610282575b505067ffffffffffffffff828203601f01601f191683019081119083111761026c57601f8281199203011681016040526101208201526101206040519160208352805160208401526020810151604084015267ffffffffffffffff604082015116606084015267ffffffffffffffff606082015116608084015267ffffffffffffffff60808201511660a084015260a081015160c084015260018060a01b0360c08201511660e084015260018060a01b0360e0820151166101008401526101008101511515828401520151610140808301528051908161016084015260005b82811061025557505081610180916000838284010152601f80199101168101030190f35b806020809284010151610180828701015201610231565b634e487b7160e01b600052604160045260246000fd5b60069192500160005260206000206000905b8282106102aa5750602091508201013880610152565b6001816020925483858801015201910190610294565b9150506020925060ff191682840152151560051b8201013880610152565b600080fd5b346102de576003196040368201126102de5760249081359167ffffffffffffffff908184116102de57610140843603938401126102de57600435600052602060008152604060002093856004013585556001948387013586820155600281018561034f60448a01610555565b168154906fffffffffffffffff000000000000000061037060648c01610555565b60401b169067ffffffffffffffff60801b61038d60848d01610555565b60801b169267ffffffffffffffff60c01b16171717905560a48701356003820155600481019060018060a01b0391826103c860c48b0161056a565b82546001600160a01b031916911617905560058101916103ea60e48a0161056a565b169180546101048a0135938415158095036102de5760069460ff60a01b9060a01b16916affffffffffffffffffffff60a81b1617179055019561012481013591602219018212156102de570160048101359384116102de57833603838201136102de57610457865461057e565b601f811161050c575b50600091601f85116001146104a25750918394918493600095610495575b5050501b916000199060031b1c1916179055600080f35b010135925085808061047e565b92909184601f1981168860005285600020956000905b898383106104f057505050106104d4575b50505050811b019055005b60001960f88660031b161c1992010135169055838080806104c9565b87860187013589559097019693840193889350908101906104b8565b8660005282600020601f860160051c81019184871061054b575b601f0160051c019086905b82811061053f575050610460565b60008155018690610531565b9091508190610526565b3567ffffffffffffffff811681036102de5790565b356001600160a01b03811681036102de5790565b90600182811c921680156105ae575b602083101461059857565b634e487b7160e01b600052602260045260246000fd5b91607f169161058d565b610140810190811067ffffffffffffffff82111761026c5760405256fea2646970667358221220eb22f913c2510e1d89ef93ceaef3003db34a1be0cb1d76f226f12e4030ec9e8d64736f6c63430008160033","linkReferences":{}},"methodIdentifiers":{"getAttestation(bytes32)":"a3112a64","setAttestation(bytes32,(bytes32,bytes32,uint64,uint64,uint64,bytes32,address,address,bool,bytes))":"415f8180"},"id":55}