{"abi":[{"type":"constructor","inputs":[],"stateMutability":"nonpayable"},{"type":"function","name":"SEASON_DURATION","inputs":[],"outputs":[{"name":"","type":"uint256","internalType":"uint256"}],"stateMutability":"view"},{"type":"function","name":"currentProjects","inputs":[{"name":"","type":"uint256","internalType":"uint256"}],"outputs":[{"name":"","type":"address","internalType":"address"}],"stateMutability":"view"},{"type":"function","name":"currentSeasonExpiry","inputs":[],"outputs":[{"name":"","type":"uint64","internalType":"uint64"}],"stateMutability":"view"},{"type":"function","name":"distributeYield","inputs":[],"outputs":[],"stateMutability":"nonpayable"},{"type":"function","name":"eas","inputs":[],"outputs":[{"name":"","type":"address","internalType":"contract IEAS"}],"stateMutability":"view"},{"type":"function","name":"ejectProject","inputs":[{"name":"project","type":"address","internalType":"address"}],"outputs":[],"stateMutability":"nonpayable"},{"type":"function","name":"eligibleProject","inputs":[{"name":"","type":"bytes32","internalType":"bytes32"}],"outputs":[{"name":"","type":"address","internalType":"address"}],"stateMutability":"view"},{"type":"function","name":"eligibleVoter","inputs":[{"name":"","type":"address","internalType":"address"}],"outputs":[{"name":"","type":"bool","internalType":"bool"}],"stateMutability":"view"},{"type":"function","name":"getCurrentProjects","inputs":[],"outputs":[{"name":"","type":"address[]","internalType":"address[]"}],"stateMutability":"view"},{"type":"function","name":"initialize","inputs":[{"name":"_token","type":"address","internalType":"address"},{"name":"_eas","type":"address","internalType":"address"},{"name":"_seasonDuration","type":"uint256","internalType":"uint256"},{"name":"_currentSeasonExpiry","type":"uint64","internalType":"uint64"},{"name":"_cycleLength","type":"uint64","internalType":"uint64"},{"name":"__params","type":"tuple","internalType":"struct IOBDYieldDistributor.YieldDistributorParams","components":[{"name":"cycleLength","type":"uint64","internalType":"uint64"},{"name":"lastClaimedTimestamp","type":"uint64","internalType":"uint64"},{"name":"minVouches","type":"uint256","internalType":"uint256"},{"name":"precision","type":"uint256","internalType":"uint256"}]},{"name":"_OPattestors","type":"address[]","internalType":"address[]"}],"outputs":[],"stateMutability":"nonpayable"},{"type":"function","name":"initialize","inputs":[{"name":"_easAddress","type":"address","internalType":"address"},{"name":"_optimismFoundationAttestors","type":"address[]","internalType":"address[]"},{"name":"_SEASON_DURATION","type":"uint256","internalType":"uint256"},{"name":"_currentSeasonExpiry","type":"uint64","internalType":"uint64"}],"outputs":[],"stateMutability":"nonpayable"},{"type":"function","name":"minRequiredVouches","inputs":[],"outputs":[{"name":"","type":"uint256","internalType":"uint256"}],"stateMutability":"view"},{"type":"function","name":"modifyAddress","inputs":[{"name":"_param","type":"bytes32","internalType":"bytes32"},{"name":"_contract","type":"address","internalType":"address"}],"outputs":[],"stateMutability":"nonpayable"},{"type":"function","name":"modifyParam","inputs":[{"name":"_param","type":"bytes32","internalType":"bytes32"},{"name":"_value","type":"uint256","internalType":"uint256"}],"outputs":[],"stateMutability":"nonpayable"},{"type":"function","name":"optimismFoundationAttestors","inputs":[{"name":"","type":"uint256","internalType":"uint256"}],"outputs":[{"name":"","type":"address","internalType":"address"}],"stateMutability":"view"},{"type":"function","name":"owner","inputs":[],"outputs":[{"name":"","type":"address","internalType":"address"}],"stateMutability":"view"},{"type":"function","name":"params","inputs":[],"outputs":[{"name":"","type":"tuple","internalType":"struct IOBDYieldDistributor.YieldDistributorParams","components":[{"name":"cycleLength","type":"uint64","internalType":"uint64"},{"name":"lastClaimedTimestamp","type":"uint64","internalType":"uint64"},{"name":"minVouches","type":"uint256","internalType":"uint256"},{"name":"precision","type":"uint256","internalType":"uint256"}]}],"stateMutability":"view"},{"type":"function","name":"projectToExpiry","inputs":[{"name":"","type":"address","internalType":"address"}],"outputs":[{"name":"","type":"uint256","internalType":"uint256"}],"stateMutability":"view"},{"type":"function","name":"projectToVouches","inputs":[{"name":"","type":"address","internalType":"address"}],"outputs":[{"name":"","type":"uint256","internalType":"uint256"}],"stateMutability":"view"},{"type":"function","name":"renounceOwnership","inputs":[],"outputs":[],"stateMutability":"nonpayable"},{"type":"function","name":"token","inputs":[],"outputs":[{"name":"","type":"address","internalType":"contract BuildersDollar"}],"stateMutability":"view"},{"type":"function","name":"transferOwnership","inputs":[{"name":"newOwner","type":"address","internalType":"address"}],"outputs":[],"stateMutability":"nonpayable"},{"type":"function","name":"userToProjectVouch","inputs":[{"name":"","type":"address","internalType":"address"},{"name":"","type":"bytes32","internalType":"bytes32"}],"outputs":[{"name":"","type":"bool","internalType":"bool"}],"stateMutability":"view"},{"type":"function","name":"validateOptimismVoter","inputs":[{"name":"identityAttestation","type":"bytes32","internalType":"bytes32"},{"name":"claimer","type":"address","internalType":"address"}],"outputs":[{"name":"","type":"bool","internalType":"bool"}],"stateMutability":"nonpayable"},{"type":"function","name":"validateProject","inputs":[{"name":"approvalAttestation","type":"bytes32","internalType":"bytes32"}],"outputs":[{"name":"","type":"bool","internalType":"bool"}],"stateMutability":"nonpayable"},{"type":"function","name":"vouch","inputs":[{"name":"projectApprovalAttestation","type":"bytes32","internalType":"bytes32"},{"name":"identityAttestation","type":"bytes32","internalType":"bytes32"}],"outputs":[],"stateMutability":"nonpayable"},{"type":"function","name":"vouch","inputs":[{"name":"projectApprovalAttestation","type":"bytes32","internalType":"bytes32"}],"outputs":[],"stateMutability":"nonpayable"},{"type":"event","name":"Initialized","inputs":[{"name":"version","type":"uint64","indexed":false,"internalType":"uint64"}],"anonymous":false},{"type":"event","name":"MemberVouched","inputs":[{"name":"account","type":"address","indexed":true,"internalType":"address"},{"name":"projects","type":"address[]","indexed":false,"internalType":"address[]"}],"anonymous":false},{"type":"event","name":"OwnershipTransferred","inputs":[{"name":"previousOwner","type":"address","indexed":true,"internalType":"address"},{"name":"newOwner","type":"address","indexed":true,"internalType":"address"}],"anonymous":false},{"type":"event","name":"ProjectValidated","inputs":[{"name":"approvalAttestation","type":"bytes32","indexed":true,"internalType":"bytes32"},{"name":"recipient","type":"address","indexed":true,"internalType":"address"}],"anonymous":false},{"type":"event","name":"VoterValidated","inputs":[{"name":"claimer","type":"address","indexed":true,"internalType":"address"},{"name":"farcasterID","type":"uint256","indexed":true,"internalType":"uint256"}],"anonymous":false},{"type":"event","name":"YieldDistributed","inputs":[{"name":"yield","type":"uint256","indexed":false,"internalType":"uint256"},{"name":"projects","type":"address[]","indexed":false,"internalType":"address[]"}],"anonymous":false},{"type":"error","name":"InvalidInitialization","inputs":[]},{"type":"error","name":"InvalidParam","inputs":[]},{"type":"error","name":"NotInitializing","inputs":[]},{"type":"error","name":"OwnableInvalidOwner","inputs":[{"name":"owner","type":"address","internalType":"address"}]},{"type":"error","name":"OwnableUnauthorizedAccount","inputs":[{"name":"account","type":"address","internalType":"address"}]},{"type":"error","name":"ZeroValue","inputs":[]}],"bytecode":{"object":"0x608080604052346100b8577ff0c57e16840df040f15088dc2f81fe391c3923bec73e23a9662efc9c229c6a009081549060ff8260401c166100a957506001600160401b036002600160401b031982821601610064575b604051611ee690816100be8239f35b6001600160401b031990911681179091556040519081527fc7f505b2f371ae2175ee4913f4499e1f2633a7b5936321eed1cdaeb6115181d290602090a1388080610055565b63f92ee8a960e01b8152600490fd5b600080fdfe608080604052600436101561001357600080fd5b600090813560e01c9081623283da14611176575080624c3c1f1461110457806302ca0806146110cb57806308ddc366146110ac5780630b35b18314610fea578063143472cc14610fb7578063247a966814610f9557806336fceabc14610be95780633faf511f14610b0c5780634188e90b14610ae15780634c670d5b146108dc5780636186b4f4146108ab578063675e935f14610884578063715018a61461081a5780638150864d146107f35780638a570a12146104635780638da5cb5b1461042d57806393c06d36146103e9578063ce4894db146103a0578063cff0ab9614610312578063d4f59d3814610292578063dc185e3514610274578063dd13925114610256578063f2645e37146101df578063f2fde38b146101b2578063f3ab6c19146101735763fc0c546a1461014857600080fd5b34610170578060031936011261017057600b546040516001600160a01b039091168152602090f35b80fd5b50346101705760203660031901126101705760209060ff906040906001600160a01b0361019e6111ac565b168152600684522054166040519015158152f35b5034610170576020366003190112610170576101dc6101cf6111ac565b6101d76119ed565b611979565b80f35b5034610170578060031936011261017057604051906102088261020181611913565b038361123f565b6040519182916020808401906020855283518092526020604086019401925b82811061023657505050500390f35b83516001600160a01b031685528695509381019392810192600101610227565b50346101705780600319360112610170576020600454604051908152f35b50346101705780600319360112610170576020600254604051908152f35b5034610170576040366003190112610170576102ac6111c7565b6102b46119ed565b6001600160a01b0316801561030057600435683130b9b2aa37b5b2b760b91b036102ee576001600160601b0360a01b600b541617600b5580f35b604051633494a40d60e21b8152600490fd5b604051637c946ed760e01b8152600490fd5b50346101705780600319360112610170576060604051610331816111f3565b82815282602082015282604082015201526080604051610350816111f3565b600c54906001600160401b03918281169283835280602084019260401c168252600d5491604084019283526060600e54940193845260405194855251166020840152516040830152516060820152f35b50346101705760403660031901126101705760209060ff906040906001600160a01b036103cb6111ac565b168152600a8452818120602435825284522054166040519015158152f35b5034610170576020366003190112610170576004359060015482101561017057602061041483611334565b905460405160039290921b1c6001600160a01b03168152f35b5034610170578060031936011261017057600080516020611e51833981519152546040516001600160a01b039091168152602090f35b5034610170578060031936011261017057600554600b8054604051631941259d60e31b815292936001600160a01b0391821693919290916020908181600481895afa9081156107e85784916107b7575b506104bf871515611888565b600c546001600160401b0390818082169160401c16018181116107a3578116421061075e57863b1561075a57604051906340bd2e2360e01b8252826004830152858260248183829c5af1801561074f57610727575b505061051f87611260565b9661052d604051988961123f565b808852601f1961053c82611260565b0136848a0137845b8181106106e7575050835b87518110156105765780610570876105696001948c6118df565b5116611359565b0161054f565b50858560055492610588841515611888565b600e5490818102908082048314901517156106d357906105ab856105b0936118f3565b6118f3565b9486805b85811061062257507f42d76df4fa5185ce8256f756ec3035e5f8cb22e61af9689c7df678a3ef801f9187604088600c5467ffffffffffffffff60401b42841b169067ffffffffffffffff60401b191617600c5581519283528201528061061c60408201611913565b0390a180f35b868461062d836112e7565b919054600392831b1c169081855260098352604085205411610657575b50899250506001016105b4565b60448686541691604051958693849263a9059cbb60e01b845260048401528d8b8401525af180156106c85761068f575b86899261064a565b8682813d83116106c1575b6106a4818361123f565b810103126106bd576106b7600192611488565b50610687565b8880fd5b503d61069a565b6040513d8b823e3d90fd5b634e487b7160e01b88526011600452602488fd5b80876106f46001936112e7565b90549060031b1c168088526007865242604089205411610716575b5001610544565b610720828c6118df565b523861070f565b819592951161073b57604052923880610514565b634e487b7160e01b82526041600452602482fd5b6040513d88823e3d90fd5b8480fd5b60405162461bcd60e51b815260048101849052601b60248201527f43616e6e6f742064697374726962757465207969656c642079657400000000006044820152606490fd5b634e487b7160e01b86526011600452602486fd5b90508181813d83116107e1575b6107ce818361123f565b810103126107dd5751386104b3565b8380fd5b503d6107c4565b6040513d86823e3d90fd5b5034610170578060031936011261017057546040516001600160a01b039091168152602090f35b50346101705780600319360112610170576108336119ed565b600080516020611e5183398151915280546001600160a01b0319811690915581906001600160a01b03167f8be0079c531659141344cd1fd0a4f28419497f9722a3daafe3b4186f6b6457e08280a380f35b503461017057806003193601126101705760206001600160401b0360035416604051908152f35b50346101705760403660031901126101705760206108d26108ca6111c7565b600435611686565b6040519015158152f35b5034610170576080366003190112610170576108f66111ac565b6001600160401b036024358181116107dd57610916903690600401611277565b61091e6111dd565b600080516020611e918339815191529283549160ff8360401c16159382841696871580610ada575b60018099149081610ad0575b159081610ac7575b50610ab55767ffffffffffffffff19858116891788559486610a96575b50610980611e21565b88546001600160a01b0319166001600160a01b03918216178955815191848311610a8257600160401b8311610a82578854838a55808410610a52575b50602080910191898b52898b5b858110610a3057505050505050604435600255169060035416176003556109ee578280f35b805468ff0000000000000000191690556040519081527fc7f505b2f371ae2175ee4913f4499e1f2633a7b5936321eed1cdaeb6115181d290602090a138808280f35b838386511695019481600080516020611e718339815191520155018a906109c9565b8984600080516020611e7183398151915292830192015b828110610a775750506109bc565b8c8155018a90610a69565b634e487b7160e01b8a52604160045260248afd5b68ffffffffffffffffff19166801000000000000000117875538610977565b60405163f92ee8a960e01b8152600490fd5b9050153861095a565b303b159150610952565b5085610946565b50346101705760203660031901126101705760043590600554821015610170576020610414836112e7565b503461017057602080600319360112610be55760043590338352600a8152604083208284528152610b4460ff60408520541615611de3565b3383526006815260ff60408420541615610b83578183526008905260408220546001600160a01b031615610b76575080f35b610b7f90611a26565b5080f35b6084906040519062461bcd60e51b82526004820152603560248201527f4964656e74697479206174746573746174696f6e20726571756972656420666f604482015274722066697273742d74696d6520766f75636865727360581b6064820152fd5b5080fd5b50346101705761014036600319011261017057610c046111ac565b90610c0d6111c7565b610c156111dd565b92608435906001600160401b03821682036107dd5760803660a31901126107dd5760405190610c43826111f3565b60a4356001600160401b0381168103610f9157825260c4356001600160401b0381168103610f9157602083015260e4356040830152610104356060830152610124356001600160401b038111610f9157610ca1903690600401611277565b600080516020611e9183398151915254946001600160401b03861680159081610f81575b6001149081610f77575b159081610f6e575b50610ab55760016001600160401b0319871617600080516020611e918339815191525560ff8660401c1615610f41575b6060840151158015610f35575b8015610f23575b8015610f0e575b610300576001600160a01b0383161561030057610d3d611e21565b610d45611e21565b610d4e33611979565b610d56611e21565b86546001600160a01b0319166001600160a01b03919091161786558051906001600160401b038211610efa57600160401b8211610efa5760015482600155808310610ecb575b5060200160018752865b828110610ea0575050506001600160401b0360ff9596604435600255166001600160401b0319600354161760035560018060a01b03166001600160601b0360a01b600b541617600b556001600160401b03600c5492606067ffffffffffffffff60401b602085015160401b16936040810151600d550151600e5516916fffffffffffffffffffffffffffffffff19161717600c5560401c1615610e465780f35b68ff000000000000000019600080516020611e918339815191525416600080516020611e91833981519152557fc7f505b2f371ae2175ee4913f4499e1f2633a7b5936321eed1cdaeb6115181d2602060405160018152a180f35b81516001600160a01b0316600080516020611e71833981519152820155602090910190600101610da6565b600080516020611e71833981519152908382015b8183018110610eef575050610d9c565b898155600101610edf565b634e487b7160e01b87526041600452602487fd5b506001600160401b0360208501511615610d22565b506001600160401b0384511615610d1b565b50604084015115610d14565b68ffffffffffffffffff1986166801000000000000000117600080516020611e9183398151915255610d07565b90501538610cd7565b303b159150610ccf565b604088901c60ff16159150610cc5565b8580fd5b5034610170576020366003190112610170576101dc610fb26111ac565b611359565b503461017057602036600319011261017057602090600435815260088252604060018060a01b0391205416604051908152f35b503461017057604036600319011261017057600435338252600a6020526040822081835260205261102260ff60408420541615611de3565b338252600660205260ff60408320541615611057575b808252600860205260408220546001600160a01b031615610b76575080f35b61106333602435611686565b6110385760405162461bcd60e51b815260206004820152601c60248201527f496e76616c6964206964656e74697479206174746573746174696f6e000000006044820152606490fd5b50346101705760203660031901126101705760206108d2600435611a26565b5034610170576020366003190112610170576020906040906001600160a01b036110f36111ac565b168152600783522054604051908152f35b5034610170576040366003190112610170576024356004356111246119ed565b8115610300576a0c6f2c6d8ca98cadccee8d60ab1b810361115d57506001600160401b03166001600160401b0319600c541617600c5580f35b696d696e566f756368657360b01b036102ee57600d5580f35b905034610be5576020366003190112610be5576020916040906001600160a01b0361119f6111ac565b1681526009845220548152f35b600435906001600160a01b03821682036111c257565b600080fd5b602435906001600160a01b03821682036111c257565b606435906001600160401b03821682036111c257565b608081019081106001600160401b0382111761120e57604052565b634e487b7160e01b600052604160045260246000fd5b604081019081106001600160401b0382111761120e57604052565b90601f801991011681019081106001600160401b0382111761120e57604052565b6001600160401b03811161120e5760051b60200190565b9080601f830112156111c257602090823561129181611260565b9361129f604051958661123f565b81855260208086019260051b8201019283116111c257602001905b8282106112c8575050505090565b81356001600160a01b03811681036111c25781529083019083016112ba565b60055481101561131e5760056000527f036b6384b5eca791c62761152d0c79bb0604c104a5fb6f4eb0703f3154bb3db00190600090565b634e487b7160e01b600052603260045260246000fd5b60015481101561131e576001600052600080516020611e718339815191520190600090565b9060018060a01b038092169160009280845260076020528360408120556009602052836040812055835b6005805480831015611457579084918461139c856112e7565b949054600395861b1c16146113b7575b505050600101611383565b6000199080820190811161144357866113d2611400926112e7565b905490861b1c166113e2866112e7565b90919060018060a01b038084549260031b9316831b921b1916179055565b8154801561142f576001949392918791019261141b846112e7565b81939154921b1b19169055559038806113ac565b634e487b7160e01b89526031600452602489fd5b634e487b7160e01b89526011600452602489fd5b50505050509050565b51906001600160401b03821682036111c257565b51906001600160a01b03821682036111c257565b519081151582036111c257565b9291926001600160401b03821161120e576020604051916114c06020601f19601f870116018461123f565b8295848452848201116111c25760005b8481106114e557505050600091602091010152565b8181015184820184015282016114d0565b906020828203126111c25781516001600160401b03928382116111c25701906101409283838303126111c2576040519384018481108282111761120e57604052825184526020830151602085015261155060408401611460565b604085015261156160608401611460565b606085015261157260808401611460565b608085015260a083015160a085015261158d60c08401611474565b60c085015261159e60e08401611474565b60e08501526101006115b1818501611488565b9085015261012092838101519182116111c257019080601f830112156111c25781516115df92602001611495565b9082015290565b156115ed57565b60405162461bcd60e51b8152602060048201526015602482015274105d1d195cdd185d1a5bdb881b9bdd08199bdd5b99605a1b6044820152606490fd5b1561163157565b60405162461bcd60e51b815260206004820152601060248201526f24b73b30b634b21030ba3a32b9ba32b960811b6044820152606490fd5b9080601f830112156111c257815161168392602001611495565b90565b9060018060a01b03916000928381815416926024604051809581936328c44a9960e21b835260048301525afa9182156107e8578492611864575b506116cd825115156115e6565b8384600190600154905b818110611830575b5050506116eb9061162a565b8060c08301511692168092036117d3576101200151918251602090840160a0858383019203126117cf5781850151946040810151906001600160401b0391828111610f9157838561173e92840101611669565b506060810151828111610f9157838561175992840101611669565b506080810151828111610f9157838561177492840101611669565b5060a081015191821161075a57600692847f3537cef8169fc4c225587baaa4099e2245e688ff0818f9f87ed4e4cef27810f49695936117b4930101611669565b508483525260408120805460ff1916600117905580a3600190565b8280fd5b60405162461bcd60e51b815260206004820152602f60248201527f436c61696d6572206973206e6f742074686520726563697069656e74206f662060448201526e3a34329030ba3a32b9ba30ba34b7b760891b6064820152608490fd5b8460e0870151168561184183611334565b90549060031b1c16146118555782016116d7565b50506116eb91509038806116df565b6118819192503d8086833e611879818361123f565b8101906114f6565b90386116c0565b1561188f57565b60405162461bcd60e51b815260206004820152602260248201527f4e6f2070726f6a6563747320746f2064697374726962757465207969656c6420604482015261746f60f01b6064820152608490fd5b805182101561131e5760209160051b010190565b81156118fd570490565b634e487b7160e01b600052601260045260246000fd5b6005549081815260208091019160056000527f036b6384b5eca791c62761152d0c79bb0604c104a5fb6f4eb0703f3154bb3db0916000905b828210611959575050505090565b83546001600160a01b03168552938401936001938401939091019061194b565b6001600160a01b039081169081156119d457600080516020611e5183398151915280546001600160a01b031981168417909155167f8be0079c531659141344cd1fd0a4f28419497f9722a3daafe3b4186f6b6457e0600080a3565b604051631e4fbdf760e01b815260006004820152602490fd5b600080516020611e51833981519152546001600160a01b03163303611a0e57565b60405163118cdaa760e01b8152336004820152602490fd5b6000818152600860209081526040808320546001600160a01b0394939291908516611dd9578483541694815180916328c44a9960e21b82528582600499898b83015260249485915afa928315611dcf578693611db3575b50611a8a835115156115e6565b8586600190600154905b818110611d7f575b505050611aa89061162a565b6001600160401b039283600354166002548103908111611d6d5784868301511610611d21576101208101518051810160a0828983019203126106bd5787820151868111611d1d578189611afd92850101611669565b9187810151878111611d1957828a611b1792840101611669565b506060810151878111611d1957828a611b3292840101611669565b506080810151878111611d1957828a611b4d92840101611669565b5060a081015190878211611d19579189611b8a927fc9c440f30d488915913fbf5be3b1258d52810b96df9abfd94453647369c5c557940101611669565b91888151910120664772616e74656560c81b898951611ba881611224565b60078152015203611ce65780877f3daf24f00ec9126ca672550e31b04f5afc84971e66e712bc688ac3bf060938ff925191012073105c1c1b1a58d85d1a5bdb88105c1c1c9bdd995960621b888851611bff81611224565b60148152015203611cb35760c00151169686865260088552838620916001600160601b0360a01b92898482541617905560055491600160401b831015611ca257505091600791611c7d896113e28660017f04ab6b814cd7dafce48f0293d9410bc8b20d0e2aad2007738da70cfc7927c67a9b9a9998016005556112e7565b87865260088552888487209182541617905560035416928785525282205580a3600190565b634e487b7160e01b88526041905286fd5b845162461bcd60e51b8152808a01879052600e818501526d496e76616c696420706172616d3560901b6044820152606490fd5b855162461bcd60e51b8152808b01889052600e818601526d496e76616c696420706172616d3160901b6044820152606490fd5b8a80fd5b8980fd5b845162461bcd60e51b8152808a018790526021818501527f4174746573746174696f6e206e6f7420696e2063757272656e7420736561736f6044820152603760f91b6064820152608490fd5b634e487b7160e01b885260118a528388fd5b8460e08801511685611d9083611334565b90549060031b1c1614611da4578201611a94565b5050611aa89150903880611a9c565b611dc89193503d8088833e611879818361123f565b9138611a7d565b84513d88823e3d90fd5b5050505050600190565b15611dea57565b60405162461bcd60e51b815260206004820152600f60248201526e105b1c9958591e481d9bdd58da1959608a1b6044820152606490fd5b60ff600080516020611e918339815191525460401c1615611e3e57565b604051631afcd79f60e31b8152600490fdfe9016d09d72d40fdae2fd8ceac6b6234c7706214fd39c1cd1e609a0528c199300b10e2d527612073b26eecdfd717e6a320cf44b4afac2b0732d9fcbe2b7fa0cf6f0c57e16840df040f15088dc2f81fe391c3923bec73e23a9662efc9c229c6a00a2646970667358221220e5b36df9bc43d34b94b857f0b3bc2c02cbc41e3de2243db8609f262d3b2a859d64736f6c63430008160033","linkReferences":{}},"methodIdentifiers":{"SEASON_DURATION()":"dc185e35","currentProjects(uint256)":"4188e90b","currentSeasonExpiry()":"675e935f","distributeYield()":"8a570a12","eas()":"8150864d","ejectProject(address)":"247a9668","eligibleProject(bytes32)":"143472cc","eligibleVoter(address)":"f3ab6c19","getCurrentProjects()":"f2645e37","initialize(address,address,uint256,uint64,uint64,(uint64,uint64,uint256,uint256),address[])":"36fceabc","initialize(address,address[],uint256,uint64)":"4c670d5b","minRequiredVouches()":"dd139251","modifyAddress(bytes32,address)":"d4f59d38","modifyParam(bytes32,uint256)":"004c3c1f","optimismFoundationAttestors(uint256)":"93c06d36","owner()":"8da5cb5b","params()":"cff0ab96","projectToExpiry(address)":"02ca0806","projectToVouches(address)":"003283da","renounceOwnership()":"715018a6","token()":"fc0c546a","transferOwnership(address)":"f2fde38b","userToProjectVouch(address,bytes32)":"ce4894db","validateOptimismVoter(bytes32,address)":"6186b4f4","validateProject(bytes32)":"08ddc366","vouch(bytes32)":"3faf511f","vouch(bytes32,bytes32)":"0b35b183"},"id":51}