{"abi":[{"type":"constructor","inputs":[{"name":"_token","type":"address","internalType":"address"},{"name":"_aToken","type":"address","internalType":"address"},{"name":"_pool","type":"address","internalType":"address"},{"name":"_rewards","type":"address","internalType":"address"}],"stateMutability":"nonpayable"},{"type":"function","name":"aToken","inputs":[],"outputs":[{"name":"","type":"address","internalType":"contract IERC20"}],"stateMutability":"view"},{"type":"function","name":"allowance","inputs":[{"name":"owner","type":"address","internalType":"address"},{"name":"spender","type":"address","internalType":"address"}],"outputs":[{"name":"","type":"uint256","internalType":"uint256"}],"stateMutability":"view"},{"type":"function","name":"approve","inputs":[{"name":"spender","type":"address","internalType":"address"},{"name":"value","type":"uint256","internalType":"uint256"}],"outputs":[{"name":"","type":"bool","internalType":"bool"}],"stateMutability":"nonpayable"},{"type":"function","name":"balanceOf","inputs":[{"name":"account","type":"address","internalType":"address"}],"outputs":[{"name":"","type":"uint256","internalType":"uint256"}],"stateMutability":"view"},{"type":"function","name":"burn","inputs":[{"name":"amount","type":"uint256","internalType":"uint256"},{"name":"receiver","type":"address","internalType":"address"}],"outputs":[],"stateMutability":"nonpayable"},{"type":"function","name":"claimRewards","inputs":[],"outputs":[],"stateMutability":"nonpayable"},{"type":"function","name":"claimYield","inputs":[{"name":"amount","type":"uint256","internalType":"uint256"}],"outputs":[],"stateMutability":"nonpayable"},{"type":"function","name":"decimals","inputs":[],"outputs":[{"name":"","type":"uint8","internalType":"uint8"}],"stateMutability":"view"},{"type":"function","name":"initialize","inputs":[{"name":"name","type":"string","internalType":"string"},{"name":"symbol","type":"string","internalType":"string"}],"outputs":[],"stateMutability":"nonpayable"},{"type":"function","name":"mint","inputs":[{"name":"amount","type":"uint256","internalType":"uint256"},{"name":"receiver","type":"address","internalType":"address"}],"outputs":[],"stateMutability":"nonpayable"},{"type":"function","name":"name","inputs":[],"outputs":[{"name":"","type":"string","internalType":"string"}],"stateMutability":"view"},{"type":"function","name":"owner","inputs":[],"outputs":[{"name":"","type":"address","internalType":"address"}],"stateMutability":"view"},{"type":"function","name":"pool","inputs":[],"outputs":[{"name":"","type":"address","internalType":"contract IPool"}],"stateMutability":"view"},{"type":"function","name":"renounceOwnership","inputs":[],"outputs":[],"stateMutability":"nonpayable"},{"type":"function","name":"rescueToken","inputs":[{"name":"tok","type":"address","internalType":"address"},{"name":"amount","type":"uint256","internalType":"uint256"}],"outputs":[],"stateMutability":"nonpayable"},{"type":"function","name":"rewards","inputs":[],"outputs":[{"name":"","type":"address","internalType":"contract IRewardsController"}],"stateMutability":"view"},{"type":"function","name":"rewardsAccrued","inputs":[],"outputs":[{"name":"rewardsList","type":"address[]","internalType":"address[]"},{"name":"unclaimedAmounts","type":"uint256[]","internalType":"uint256[]"}],"stateMutability":"view"},{"type":"function","name":"symbol","inputs":[],"outputs":[{"name":"","type":"string","internalType":"string"}],"stateMutability":"view"},{"type":"function","name":"token","inputs":[],"outputs":[{"name":"","type":"address","internalType":"contract IERC20"}],"stateMutability":"view"},{"type":"function","name":"totalSupply","inputs":[],"outputs":[{"name":"","type":"uint256","internalType":"uint256"}],"stateMutability":"view"},{"type":"function","name":"transfer","inputs":[{"name":"to","type":"address","internalType":"address"},{"name":"value","type":"uint256","internalType":"uint256"}],"outputs":[{"name":"","type":"bool","internalType":"bool"}],"stateMutability":"nonpayable"},{"type":"function","name":"transferFrom","inputs":[{"name":"from","type":"address","internalType":"address"},{"name":"to","type":"address","internalType":"address"},{"name":"value","type":"uint256","internalType":"uint256"}],"outputs":[{"name":"","type":"bool","internalType":"bool"}],"stateMutability":"nonpayable"},{"type":"function","name":"transferOwnership","inputs":[{"name":"newOwner","type":"address","internalType":"address"}],"outputs":[],"stateMutability":"nonpayable"},{"type":"function","name":"yieldAccrued","inputs":[],"outputs":[{"name":"","type":"uint256","internalType":"uint256"}],"stateMutability":"view"},{"type":"event","name":"Approval","inputs":[{"name":"owner","type":"address","indexed":true,"internalType":"address"},{"name":"spender","type":"address","indexed":true,"internalType":"address"},{"name":"value","type":"uint256","indexed":false,"internalType":"uint256"}],"anonymous":false},{"type":"event","name":"Burned","inputs":[{"name":"receiver","type":"address","indexed":false,"internalType":"address"},{"name":"amount","type":"uint256","indexed":false,"internalType":"uint256"}],"anonymous":false},{"type":"event","name":"ClaimedRewards","inputs":[{"name":"rewardsList","type":"address[]","indexed":false,"internalType":"address[]"},{"name":"claimedAmounts","type":"uint256[]","indexed":false,"internalType":"uint256[]"}],"anonymous":false},{"type":"event","name":"ClaimedYield","inputs":[{"name":"amount","type":"uint256","indexed":false,"internalType":"uint256"}],"anonymous":false},{"type":"event","name":"Initialized","inputs":[{"name":"version","type":"uint64","indexed":false,"internalType":"uint64"}],"anonymous":false},{"type":"event","name":"Minted","inputs":[{"name":"receiver","type":"address","indexed":false,"internalType":"address"},{"name":"amount","type":"uint256","indexed":false,"internalType":"uint256"}],"anonymous":false},{"type":"event","name":"OwnershipTransferred","inputs":[{"name":"previousOwner","type":"address","indexed":true,"internalType":"address"},{"name":"newOwner","type":"address","indexed":true,"internalType":"address"}],"anonymous":false},{"type":"event","name":"Transfer","inputs":[{"name":"from","type":"address","indexed":true,"internalType":"address"},{"name":"to","type":"address","indexed":true,"internalType":"address"},{"name":"value","type":"uint256","indexed":false,"internalType":"uint256"}],"anonymous":false},{"type":"error","name":"ERC20InsufficientAllowance","inputs":[{"name":"spender","type":"address","internalType":"address"},{"name":"allowance","type":"uint256","internalType":"uint256"},{"name":"needed","type":"uint256","internalType":"uint256"}]},{"type":"error","name":"ERC20InsufficientBalance","inputs":[{"name":"sender","type":"address","internalType":"address"},{"name":"balance","type":"uint256","internalType":"uint256"},{"name":"needed","type":"uint256","internalType":"uint256"}]},{"type":"error","name":"ERC20InvalidApprover","inputs":[{"name":"approver","type":"address","internalType":"address"}]},{"type":"error","name":"ERC20InvalidReceiver","inputs":[{"name":"receiver","type":"address","internalType":"address"}]},{"type":"error","name":"ERC20InvalidSender","inputs":[{"name":"sender","type":"address","internalType":"address"}]},{"type":"error","name":"ERC20InvalidSpender","inputs":[{"name":"spender","type":"address","internalType":"address"}]},{"type":"error","name":"InvalidInitialization","inputs":[]},{"type":"error","name":"NotInitializing","inputs":[]},{"type":"error","name":"OwnableInvalidOwner","inputs":[{"name":"owner","type":"address","internalType":"address"}]},{"type":"error","name":"OwnableUnauthorizedAccount","inputs":[{"name":"account","type":"address","internalType":"address"}]},{"type":"error","name":"ReentrancyGuardReentrantCall","inputs":[]},{"type":"error","name":"SafeERC20FailedOperation","inputs":[{"name":"token","type":"address","internalType":"address"}]}],"bytecode":{"object":"0x610100346200012757601f62001fdb38819003918201601f19168301916001600160401b038311848410176200012c5780849260809460405283398101031262000127576200004e8162000142565b906200005d6020820162000142565b916200007a6060620000726040850162000142565b930162000142565b6001600160a01b0391821660805292811660a05290811660c0521660e052604051611e839081620001588239608051818181610246015281816103c2015281816107900152610f5a015260a05181818161020c015281816104e3015281816105c7015281816111040152818161122e0152611b2e015260c0518181816101e0015281816107d601528181610fa2015261144e015260e0518181816105370152818161060b015261116d0152f35b600080fd5b634e487b7160e01b600052604160045260246000fd5b51906001600160a01b0382168203620001275756fe6080604081815260048036101561001557600080fd5b600092833560e01c90816306fdde031461152557508063095ea7b31461147d57806316f0115b1461143957806318160ddd1461140d57806323b872dd1461131b578063313ce567146112ff57806333f3d628146111fe578063372500ab146110df57806340bd2e2314610f015780634cd88b7614610a8457806370a0823114610a3f578063715018a6146109d55780638da5cb5b1461099f57806394bf804d1461073a57806395d89b411461063a5780639ec5a894146105f6578063a0c1f15e146105b2578063a8158f65146104c2578063a9059cbb14610491578063ca092ce81461046d578063dd62ed3e14610425578063f2fde38b146103f5578063fc0c546a146103ad5763fcd3533c1461012b57600080fd5b346103a957816003193601126103a957803590610146611648565b9061014f611ae3565b821561036d5733156103565733600052600080516020611dce833981519152906020918083528560002054908582106103295784928685938193336000528552038860002055600080516020611e0e833981519152828154039055600088518381527fddf252ad1be2c89b69c2b068fc378daa952ba7f163c4a11628f55a4df523b3ef853392a36001600160a01b037f0000000000000000000000000000000000000000000000000000000000000000811691908a9061023085857f0000000000000000000000000000000000000000000000000000000000000000611be5565b8a51631a4ca37b60e21b81526001600160a01b037f000000000000000000000000000000000000000000000000000000000000000090921682169381019384526020840195909552909516604082015291938492839190829060600103925af1801561031f576102f1575b505091516001600160a01b03909216825260208201527f696de425f79f4a40bc6d2122ca50507f0efbeabbff86a84871b7196ab8ea8df79080604081015b0390a16001600080516020611e2e8339815191525580f35b813d8311610318575b610304818361165e565b8101031261031357388061029b565b600080fd5b503d6102fa565b85513d88823e3d90fd5b50855163391434e360e21b8152339281019283526020830191909152604082018590529081906060010390fd5b8351634b637e8f60e11b8152908101859052602490fd5b606490602085519162461bcd60e51b8352820152601660248201527504275696c64657273446f6c6c61723a206275726e20360541b6044820152fd5b8280fd5b5050346103f157816003193601126103f157517f00000000000000000000000000000000000000000000000000000000000000006001600160a01b03168152602090f35b5080fd5b83346104225760203660031901126104225761041f610412611632565b61041a611aaa565b611948565b80f35b80fd5b5050346103f157806003193601126103f157602090610442611632565b61045361044d611648565b9161190f565b9060018060a01b0316600052825280600020549051908152f35b5050346103f157816003193601126103f15760209061048a611b13565b9051908152f35b5050346103f157806003193601126103f1576020906104bb6104b1611632565b60243590336119bc565b5160018152f35b508290346103f157816003193601126103f157829082906001600160a01b037f0000000000000000000000000000000000000000000000000000000000000000811661050c6117e0565b528351958692634c0369c360e01b8452830152818061052d604482016116ed565b30602483015203917f0000000000000000000000000000000000000000000000000000000000000000165afa9283156105a75782809461057c575b505061057890519283928361172b565b0390f35b61059e92945061057893503d8091833e610596818361165e565b81019061181b565b92909184610568565b5051903d90823e3d90fd5b5050346103f157816003193601126103f157517f00000000000000000000000000000000000000000000000000000000000000006001600160a01b03168152602090f35b5050346103f157816003193601126103f157517f00000000000000000000000000000000000000000000000000000000000000006001600160a01b03168152602090f35b828434610422578060031936011261042257815190807f52c63247e1f47db19d5ce0460030c497f067ca4cebf71ba98eeadabe20bace04805461067c816117a6565b8086529260209260019280841690811561070b57506001146106b4575b61057887896106aa828a038361165e565b51918291826115e9565b815293507f46a2803e59a4de4e7a4c574b1243f25977ac4c77d5a1a4a609b5394cebb4a2aa5b8385106106f8575050505081016020016106aa826105788680610699565b80548686018401529382019381016106da565b915050610578979550869350602092506106aa94915060ff191682840152151560051b82010192948680610699565b508290346103f157826003193601126103f157803590610758611648565b9082156109635784516323b872dd60e01b60208201523360248201523060448201526064808201859052815267ffffffffffffffff907f00000000000000000000000000000000000000000000000000000000000000009060a08101838111828210176109505788526107cb9082611d30565b6001600160a01b03917f0000000000000000000000000000000000000000000000000000000000000000831691610803878483611be5565b823b1561094c578360848992838c51968794859363617ba03760e01b8552168a8401528b60248401523060448401528160648401525af180156109425761091c575b5050821690811561090557507f30385c845b448a36257a6a1716e6ad2e1bc2cbe333cde1e69fe849ad6511adfe93946108ff91600080516020611e0e833981519152610892868254611bd8565b905580600052600080516020611dce8339815191526020528160002085815401905560007fddf252ad1be2c89b69c2b068fc378daa952ba7f163c4a11628f55a4df523b3ef60208451888152a3516001600160a01b03909216825260208201929092529081906040820190565b0390a180f35b855163ec442f0560e01b8152908101859052602490fd5b819692961161092f578652938680610845565b506041602492634e487b7160e01b835252fd5b88513d89823e3d90fd5b8780fd5b634e487b7160e01b885260418552602488fd5b606490602086519162461bcd60e51b8352820152601660248201527504275696c64657273446f6c6c61723a206d696e7420360541b6044820152fd5b5050346103f157816003193601126103f157600080516020611dee8339815191525490516001600160a01b039091168152602090f35b83346104225780600319360112610422576109ee611aaa565b600080516020611dee83398151915280546001600160a01b0319811690915581906001600160a01b03167f8be0079c531659141344cd1fd0a4f28419497f9722a3daafe3b4186f6b6457e08280a380f35b5050346103f15760203660031901126103f15760209181906001600160a01b03610a67611632565b168152600080516020611dce833981519152845220549051908152f35b50346103a957816003193601126103a95767ffffffffffffffff908035828111610efd57610ab59036908301611696565b90602435838111610ef957610acd9036908301611696565b7ff0c57e16840df040f15088dc2f81fe391c3923bec73e23a9662efc9c229c6a009384549360ff85881c16159382861695861580610ef2575b60018098149081610ee8575b159081610edf575b50610ed05767ffffffffffffffff1981168717885585610eb1575b50610b3e611d8c565b610b46611d8c565b8151838111610e9e577f52c63247e1f47db19d5ce0460030c497f067ca4cebf71ba98eeadabe20bace039080610b7c83546117a6565b94601f95868111610e2e575b506020908d878411600114610db15792610da6575b5050600019600383901b1c191690881b1790555b8351928311610d93575081907f52c63247e1f47db19d5ce0460030c497f067ca4cebf71ba98eeadabe20bace0493610be985546117a6565b828111610d24575b506020918311600114610ca7578992610c9c575b5050600019600383901b1c191690841b1790555b610c21611d8c565b610c29611d8c565b81600080516020611e2e83398151915255610c42611d8c565b610c4a611d8c565b610c5333611948565b610c5b578380f35b7fc7f505b2f371ae2175ee4913f4499e1f2633a7b5936321eed1cdaeb6115181d29260209268ff000000000000000019815416905551908152a13880808380f35b015190503880610c05565b848a528693507f46a2803e59a4de4e7a4c574b1243f25977ac4c77d5a1a4a609b5394cebb4a2aa9190601f1984168b5b818110610d0c57508411610cf3575b505050811b019055610c19565b015160001960f88460031b161c19169055388080610ce6565b82840151855589969094019360209384019301610cd7565b90919250848a527f46a2803e59a4de4e7a4c574b1243f25977ac4c77d5a1a4a609b5394cebb4a2aa8380860160051c82019260208710610d8a575b9186958a929594930160051c01915b828110610d7c575050610bf1565b8c8155869550899101610d6e565b92508192610d5f565b634e487b7160e01b895260419052602488fd5b015190503880610b9d565b91908b9450601f1984168684527f2ae08a8e29253f69ac5d979a101956ab8f8d9d7ded63fa7a83b16fc47648eab0935b818110610e1657508411610dfd575b505050811b019055610bb1565b015160001960f88460031b161c19169055388080610df0565b8284015185558d969094019360209384019301610de1565b909150838d527f2ae08a8e29253f69ac5d979a101956ab8f8d9d7ded63fa7a83b16fc47648eab08680850160051c82019260208610610e95575b859493910160051c909101908b908f5b838210610e8757505050610b88565b81558594508c91018f610e78565b92508192610e68565b634e487b7160e01b8a526041825260248afd5b68ffffffffffffffffff19166801000000000000000117875538610b35565b50875163f92ee8a960e01b8152fd5b90501538610b1a565b303b159150610b12565b5085610b06565b8580fd5b8480fd5b50346103a9576020908160031936011261102f57803590610f20611ae3565b811561109c5781610f2f611b13565b1061104457600080516020611dee833981519152548451631a4ca37b60e21b81526001600160a01b037f00000000000000000000000000000000000000000000000000000000000000008116938201938452602084018590529182166040840152918491839182908990829060600103927f0000000000000000000000000000000000000000000000000000000000000000165af1801561103a5761100c575b507f32919048af00a655979f73cd0a43b0e566a60e04a81a751b9329c2658441e05b9251908152a16001600080516020611e2e8339815191525580f35b8290813d8311611033575b611021818361165e565b8101031261102f5738610fcf565b8380fd5b503d611017565b84513d87823e3d90fd5b835162461bcd60e51b8152908101839052602c60248201527f4275696c64657273446f6c6c61723a20616d6f756e742065786365656473207960448201526b1a595b19081858d8dc9d595960a21b6064820152608490fd5b835162461bcd60e51b8152908101839052601760248201527f4275696c64657273446f6c6c61723a20636c61696d20300000000000000000006044820152606490fd5b50346103a957826003193601126103a9576110f8611ae3565b82826001600160a01b037f0000000000000000000000000000000000000000000000000000000000000000811661112d6117e0565b5280600080516020611dee83398151915254169383835180968195829463bb492bf560e01b8452830152611163604483016116ed565b90602483015203927f0000000000000000000000000000000000000000000000000000000000000000165af19081156111f2577f3131ac6eb32231403fa00e9428dda0bcb819d252eec55b11e6d7c53d91571bba92849185936111d0575b506102d990519283928361172b565b6111ea9193506102d992503d8087833e610596818361165e565b9290916111c1565b505051903d90823e3d90fd5b5090346103a957806003193601126103a957611218611632565b611220611aaa565b6001600160a01b03908116927f0000000000000000000000000000000000000000000000000000000000000000821684146112a95750600080516020611dee83398151915254915163a9059cbb60e01b602082015291166001600160a01b031660248083019190915235604480830191909152815261041f916112a460648361165e565b611d30565b608490602084519162461bcd60e51b8352820152602a60248201527f4275696c64657273446f6c6c61723a2063616e6e6f742077697468647261772060448201526918dbdb1b185d195c985b60b21b6064820152fd5b5050346103f157816003193601126103f1576020905160128152f35b50823461042257606036600319011261042257611336611632565b61133e611648565b916044359361134c8361190f565b33835260205285822054906001820161136e575b6020876104bb8888886119bc565b8582106113e2576001600160a01b038416156113cb5733156113b45750916104bb9391868660209897956113a18561190f565b3385528a52039120559193948193611360565b8651634a1406b160e11b8152908101839052602490fd5b865163e602df0560e01b8152908101839052602490fd5b8651637dc7a0d960e11b81523391810191825260208201929092526040810186905281906060010390fd5b5050346103f157816003193601126103f157602090600080516020611e0e833981519152549051908152f35b5050346103f157816003193601126103f157517f00000000000000000000000000000000000000000000000000000000000000006001600160a01b03168152602090f35b50346103a957816003193601126103a957611496611632565b60243590331561150e576001600160a01b03169182156114f7575080836020956114bf3361190f565b8582528752205582519081527f8c5be1e5ebec7d5bd14f71427d1e84f3dd0314c0f7b2291e5b200ac8c7c3b925843392a35160018152f35b8351634a1406b160e11b8152908101859052602490fd5b835163e602df0560e01b8152808401869052602490fd5b83908534610422578060031936011261042257807f52c63247e1f47db19d5ce0460030c497f067ca4cebf71ba98eeadabe20bace038054611565816117a6565b8086529260209260019280841690811561070b57506001146115925761057887896106aa828a038361165e565b815293507f2ae08a8e29253f69ac5d979a101956ab8f8d9d7ded63fa7a83b16fc47648eab05b8385106115d6575050505081016020016106aa826105788680610699565b80548686018401529382019381016115b8565b6020808252825181830181905290939260005b82811061161e57505060409293506000838284010152601f8019910116010190565b8181018601518482016040015285016115fc565b600435906001600160a01b038216820361031357565b602435906001600160a01b038216820361031357565b90601f8019910116810190811067ffffffffffffffff82111761168057604052565b634e487b7160e01b600052604160045260246000fd5b81601f820112156103135780359067ffffffffffffffff821161168057604051926116cb601f8401601f19166020018561165e565b8284526020838301011161031357816000926020809301838601378301015290565b6060519081815260208091019160809160005b82811061170e575050505090565b83516001600160a01b031685529381019392810192600101611700565b6040810190604081528251809252606081019160208094019060005b818110611789575050508281830391015281808451928381520193019160005b828110611775575050505090565b835185529381019392810192600101611767565b82516001600160a01b031685529385019391850191600101611747565b90600182811c921680156117d6575b60208310146117c057565b634e487b7160e01b600052602260045260246000fd5b91607f16916117b5565b606051156117ed57608090565b634e487b7160e01b600052603260045260246000fd5b67ffffffffffffffff81116116805760051b60200190565b919060408382031261031357825167ffffffffffffffff908181116103135784019082601f8301121561031357815160209261185682611803565b91611864604051938461165e565b808352848084019160051b83010191868311610313578501905b8282106118f057505050948281015191821161031357019180601f840112156103135782516118ac81611803565b936118ba604051958661165e565b818552838086019260051b820101928311610313578301905b8282106118e1575050505090565b815181529083019083016118d3565b81516001600160a01b038116810361031357815290850190850161187e565b6001600160a01b031660009081527f52c63247e1f47db19d5ce0460030c497f067ca4cebf71ba98eeadabe20bace016020526040902090565b6001600160a01b039081169081156119a357600080516020611dee83398151915280546001600160a01b031981168417909155167f8be0079c531659141344cd1fd0a4f28419497f9722a3daafe3b4186f6b6457e0600080a3565b604051631e4fbdf760e01b815260006004820152602490fd5b916001600160a01b03808416928315611a915716928315611a7857600090838252600080516020611dce83398151915280602052604083205491848310611a45575082847fddf252ad1be2c89b69c2b068fc378daa952ba7f163c4a11628f55a4df523b3ef959360409388602097528652038282205586815220818154019055604051908152a3565b60405163391434e360e21b81526001600160a01b0391909116600482015260248101929092525060448101839052606490fd5b60405163ec442f0560e01b815260006004820152602490fd5b604051634b637e8f60e11b815260006004820152602490fd5b600080516020611dee833981519152546001600160a01b03163303611acb57565b60405163118cdaa760e01b8152336004820152602490fd5b600080516020611e2e8339815191526002815414611b015760029055565b604051633ee5aeb560e01b8152600490fd5b6040516370a0823160e01b81523060048201526020816024817f00000000000000000000000000000000000000000000000000000000000000006001600160a01b03165afa908115611bcc57600091611b9a575b50600080516020611e0e833981519152548103908111611b845790565b634e487b7160e01b600052601160045260246000fd5b90506020813d602011611bc4575b81611bb56020938361165e565b81010312610313575138611b67565b3d9150611ba8565b6040513d6000823e3d90fd5b91908201809211611b8457565b604051636eb1769f60e11b81523060048201526001600160a01b038381166024830181905260209591841694909290918682604481895afa8015611bcc57600090611d01575b611c359250611bd8565b60405163095ea7b360e01b8782018181526001600160a01b039490941660248301526044808301939093529181529490918690600090611c7660648961165e565b87519082885af1903d6000519083611ce2575b50505015611c99575b5050505050565b60405194850152602484015260006044840152604483526080830183811067ffffffffffffffff82111761168057611cd8936112a49160405282611d30565b3880808080611c92565b91925090611cf757503b15155b388080611c89565b6001915014611cef565b508682813d8311611d29575b611d17818361165e565b8101031261031357611c359151611c2b565b503d611d0d565b906000602091828151910182855af115611bcc576000513d611d8357506001600160a01b0381163b155b611d615750565b604051635274afe760e01b81526001600160a01b039091166004820152602490fd5b60011415611d5a565b60ff7ff0c57e16840df040f15088dc2f81fe391c3923bec73e23a9662efc9c229c6a005460401c1615611dbb57565b604051631afcd79f60e31b8152600490fdfe52c63247e1f47db19d5ce0460030c497f067ca4cebf71ba98eeadabe20bace009016d09d72d40fdae2fd8ceac6b6234c7706214fd39c1cd1e609a0528c19930052c63247e1f47db19d5ce0460030c497f067ca4cebf71ba98eeadabe20bace029b779b17422d0df92223018b32b4d1fa46e071723d6817e2486d003becc55f00a264697066735822122046d966a607027aa80c8f0b149d9f4051d17bca32f017dccab51b71f19a66cff464736f6c63430008160033","linkReferences":{}},"methodIdentifiers":{"aToken()":"a0c1f15e","allowance(address,address)":"dd62ed3e","approve(address,uint256)":"095ea7b3","balanceOf(address)":"70a08231","burn(uint256,address)":"fcd3533c","claimRewards()":"372500ab","claimYield(uint256)":"40bd2e23","decimals()":"313ce567","initialize(string,string)":"4cd88b76","mint(uint256,address)":"94bf804d","name()":"06fdde03","owner()":"8da5cb5b","pool()":"16f0115b","renounceOwnership()":"715018a6","rescueToken(address,uint256)":"33f3d628","rewards()":"9ec5a894","rewardsAccrued()":"a8158f65","symbol()":"95d89b41","token()":"fc0c546a","totalSupply()":"18160ddd","transfer(address,uint256)":"a9059cbb","transferFrom(address,address,uint256)":"23b872dd","transferOwnership(address)":"f2fde38b","yieldAccrued()":"ca092ce8"},"id":48}